:100000000C942A000C9434000C9434000C943400AA
:100010000C9434000C9434000C9434000C94340090
:100020000C9434000C9434000C9434000C94340080
:100030000C9434000C9434000C9434000C94340070
:100040000C9434000C9434000C9434000C94340060
:100050000C94340011241FBECFE5D4E0DEBFCDBF29
:100060000E9436000C949D000C9400001ABA8FEF89
:1000700087BB21E090E080E0C12CD12C7601C394B5
:10008000C89B05C018BA21E090E080E0F9CF222398
:1000900071F1009789F038B3AC0141505109460124
:1000A000570104C0880C991CAA1CBB1C4A95D2F7A6
:1000B000A4014095432348BB38B3B701A601082EDD
:1000C00004C0440F551F661F771F0A94D2F7342BC4
:1000D00038BB8730910569F101963FE946E851E068
:1000E000315040405040E1F700C00000C9CF38B364
:1000F000FC013197B701A6010E2E04C0440F551F15
:10010000661F771F0A94D2F7342B38BB38B3B70178
:10011000A601082E04C0440F551F661F771F0A94BE
:10012000D2F74095432348BB8130910521F0CF01A0
:0E013000D4CF20E0D2CF21E0D0CFF894FFCF83
:00000001FF
