:100000000C942A000C943F000C943F000C943F0089
:100010000C943F000C943F000C943F000C943F0064
:100020000C943F000C943F000C943F000C943F0054
:100030000C943F000C943F000C943F000C943F0044
:100040000C943F000C943F000C943F000C943F0034
:100050000C943F0011241FBECFE5D4E0DEBFCDBF1E
:1000600010E0A0E6B0E0EEE5FEE002C005900D92E3
:10007000A237B107D9F70E949C020C942D070C946B
:1000800000008FE087BB8FEF88BB0895CF92DF928F
:10009000EF92FF920F931F93CF93DF9300D000D086
:1000A00000D0CDB7DEB780E788BB8091600090912B
:1000B00061009C0150E040E029833A834B835C83DC
:1000C000CA01B9010E941E036B017C0120E030E0EF
:1000D0004AEF54E46983DA828B83FC8269817A81F6
:1000E0008B819C810E94AD038B018E839D8320E0D8
:1000F00030E040E85FE369831A838B839C836981E6
:100100007A818B819C810E94EA0287FD53C020E0A6
:100110003FEF4FE757E469817A818B819C810E9490
:10012000A8031816BCF520E030E040E251E4C98293
:10013000DA82EB82FC8269817A818B819C810E94C8
:10014000AD0369837A838B839C8369817A818B81F8
:100150009C810E94EF02CB0128EC30E00097A9F4CB
:1001600096B3907781E0903709F080E026960FB63D
:10017000F894DEBF0FBECDBFDF91CF911F910F91DD
:10018000FF90EF90DF90CF900895F9013197F1F74C
:100190000197E4CF09831A832E812B833D813C8311
:1001A00069817A818B819C810E94EF02CB0101974A
:1001B000F1F7D6CF81E090E0FACFCF92DF92EF92C5
:1001C000FF920F931F93CF93DF9300D000D000D006
:1001D000CDB7DEB780E788BB809160009091610069
:1001E0009C0150E040E029833A834B835C83CA0141
:1001F000B9010E941E036B017C0120E030E04AEF50
:1002000054E46983DA828B83FC8269817A818B81F1
:100210009C810E94AD038B018E839D8320E030E0A2
:1002200040E85FE369831A838B839C8369817A81C9
:100230008B819C810E94EA0287FD5CC020E03FEF39
:100240004FE757E469817A818B819C810E94A803E2
:1002500018160CF03FC020E030E040E251E4C982C3
:10026000DA82EB82FC8269817A818B819C810E9497
:10027000AD0369837A838B839C8369817A818B81C7
:100280009C810E94EF02CB0128EC30E00097E9F45A
:1002900086B38077803749F080E49CE90197F1F7D5
:1002A00096B3907781E0903709F480E026960FB6F8
:1002B000F894DEBF0FBECDBFDF91CF911F910F919C
:1002C000FF90EF90DF90CF900895F9013197F1F70B
:1002D0000197DCCF09831A832E812B833D813C83D8
:1002E00069817A818B819C810E94EF02CB01019709
:1002F000F1F7CECF81E090E0FACF3F924F925F923C
:100300006F927F928F929F92AF92BF92CF92DF9225
:10031000EF92FF920F931F93CF93DF9300D000D003
:1003200000D0CDB7DEB70E94DD00BB24BA9488238D
:1003300009F491C022E630E03E832D8310E000E016
:10034000B12CEE24E394F12C98ECC92ED12CC701EA
:10035000002E01C0880F0A94EAF7809588BB80912F
:100360006000909161009C0150E040E029833A8355
:100370004B835C83CA01B9010E941E03362E472EAF
:10038000582E692E20E030E04AEF54E469837A83E6
:100390008B839C8369817A818B819C810E94AD03D0
:1003A000762E872E982EA92E20E030E040E85FE3DD
:1003B00069837A838B839C8369817A818B819C8119
:1003C0000E94EA0287FD73C020E03FEF4FE757E449
:1003D00069817A818B819C810E94A80318160CF098
:1003E00058C020E030E040E251E439824A825B822A
:1003F0006C8269817A818B819C810E94AD036983C3
:100400007A838B839C8369817A818B819C810E9412
:10041000EF02CB010097C1F5B49903C0ED81FE81D5
:10042000B080B59903C0ED81FE81B180B69903C05B
:10043000ED81FE81B2800F5F1F4F2D813E812D5FC8
:100440003F4F3E832D830430110509F080CF0E9479
:1004500046008823E1F38B2D26960FB6F894DEBF75
:100460000FBECDBFDF91CF911F910F91FF90EF9005
:10047000DF90CF90BF90AF909F908F907F906F90C4
:100480005F904F903F900895F6013197F1F70197F3
:10049000C1CF79828A829B82AC8269817A818B8189
:1004A0009C810E94EF02CB010197F1F7B5CF81E06B
:1004B00090E0FACF82BBAD98AE98AF9A82E08A9571
:1004C000F1F7AF9880E797E10197F1F708958FEF83
:1004D00084BB81BB80E49CE90197F1F788E30E942B
:1004E0005A028CE00E945A0286E00E945A0281E081
:1004F0000E945A0280E80C945A0282BBAD9AAE98D0
:10050000AF9A82E08A95F1F7AF9880ED97E0019776
:10051000F1F70895CF93DF93EC018991811103C026
:10052000DF91CF9108950E947D02F7CF81E00E9474
:100530005A0280E80C945A02CDB7DEB762970FB624
:10054000F894DEBF0FBECDBF1A821982FE0133962A
:100550008EE0DF011D928A95E9F70E9467020E94F2
:100560004100A898A9988E010F5F1F4F8FE6C82EF3
:1005700080E0D82E7E01B1E1EB0EF11C0E947D01DE
:100580008F3FE1F38A3099F4F80101900020E9F7F8
:10059000AF01401B510B42505109B801C8010E94E4
:1005A0004D040E949602C8010E948A02E7CF1F9262
:1005B0008F93DF92CF92FF92EF920E945C04B7017B
:1005C000C8010E9442040F900F900F900F900F905F
:1005D0000F90E7CF0E945B0308F481E008950E942A
:1005E000870388F09F5798F0B92F9927B751B0F03B
:1005F000E1F0660F771F881F991F1AF0BA95C9F7A7
:1006000014C0B13091F00E94A103B1E008950C94A0
:10061000A103672F782F8827B85F39F0B93FCCF353
:10062000869577956795B395D9F73EF49095809523
:10063000709561957F4F8F4F9F4F0895E89409C043
:1006400097FB3EF490958095709561957F4F8F4F05
:100650009F4F9923A9F0F92F96E9BB279395F6951B
:10066000879577956795B795F111F8CFFAF4BB0F99
:1006700011F460FF1BC06F5F7F4F8F4F9F4F16C0FD
:10068000882311F096E911C0772321F09EE8872F87
:10069000762F05C0662371F096E8862F70E060E043
:1006A0002AF09A95660F771F881FDAF7880F9695BC
:1006B000879597F90895990F0008550FAA0BE0E860
:1006C000FEEF16161706E807F907C0F01216130614
:1006D000E407F50798F0621B730B840B950B39F454
:1006E0000A2661F0232B242B252B21F408950A26BA
:1006F00009F4A140A6958FEF811D811D089557FD36
:100700009058440F551F59F05F3F71F04795880F7F
:1007100097FB991F61F09F3F79F087950895121616
:1007200013061406551FF2CF4695F1DF08C01616C2
:1007300017061806991FF1CF869571056105089473
:100740000895E894BB2766277727CB0197F908958A
:100750000E945B0308F48FEF08950E94C0030C947D
:1007600031040E94230438F00E942A0420F09523CB
:1007700011F00C941A040C94200411240C94A2037C
:100780000E947F0370F3959FC1F3950F50E0551FB2
:10079000629FF001729FBB27F00DB11D639FAA27D6
:1007A000F00DB11DAA1F649F6627B00DA11D661F25
:1007B000829F2227B00DA11D621F739FB00DA11D46
:1007C000621F839FA00D611D221F749F3327A00D00
:1007D000611D231F849F600D211D822F762F6A2F9C
:1007E00011249F5750409AF0F1F088234AF0EE0F01
:1007F000FF1FBB1F661F771F881F91505040A9F72E
:100800009E3F510580F00C941A040C94A2035F3FA4
:10081000E4F3983ED4F3869577956795B795F79569
:10082000E7959F5FC1F7FE2B880F911D96958795E1
:1008300097F9089597F99F6780E870E060E0089560
:100840009FEF80EC089500240A94161617061806E8
:100850000906089500240A941216130614060506C4
:100860000895092E0394000C11F4882352F0BB0F55
:1008700040F4BF2B11F460FF04C06F5F7F4F8F4FB8
:100880009F4F0895FB01DC010D900020E9F71197BF
:1008900001900D920020E1F70895FB01DC01415029
:1008A000504048F001900D920020C9F701C01D9200
:1008B00041505040E0F70895AEE0B0E0E2E6F4E0E9
:1008C0000C9404070D891E8986E08C831A830983A2
:1008D0008FEF9FE79E838D83AE01475E5F4F6F89E9
:1008E000788DCE0101960E947F042F813885020FFA
:1008F000131FF80110822E96E4E00C942007AFE05D
:10090000B0E0E5E8F4E00C94F6067C013B018A01D6
:10091000DC0117961C921E92169713968C9181FFFC
:10092000BEC19AE0292EFE0131964F01D7011396E0
:100930009C91F30193FD859193FF81913F01882361
:1009400009F444C1853239F493FD859193FF819177
:100950003F01853229F4B70190E00E946806E6CF96
:10096000B12C412C512CBFE1B51538F08B3209F177
:1009700088F4803201F1833221F157FC3AC020ED36
:10098000280F2A3040F556FE1FC0B29C200D1124BE
:10099000B22E06C08D3291F0803379F7689450F80A
:1009A000F30193FD859193FF81913F018111DBCF8D
:1009B00020C0689451F8689452F8F2CF689453F8C4
:1009C000EFCF689454F8ECCF429C200D1124422EB6
:1009D000689455F8E5CF8E3229F456FCF7C0689438
:1009E00056F8DECF8C3619F4689457F8D9CF88368C
:1009F000B9F2982F9F7D95549330C0F0833681F1E2
:100A00008337A1F1833509F05BC0D801CD90DD902B
:100A10008D016B2D70E056FC02C06FEF7FEFC601B9
:100A20000E9452065C01689457F80AC00C5F1F4F81
:100A3000EFE3E983AA24A394B12C6401E89457F866
:100A400053FE29C0342CA114B10451F5332009F40C
:100A50006DCFB70180E290E00E9468063A94F6CF2D
:100A6000D8018C9189830E5F1F4FE4CFF801C190AC
:100A7000D1908F016B2D70E056FC02C06FEF7FEFBD
:100A8000C6010E945D065C01D9CFB70180E290E00B
:100A90000E9468064A944A141B0409F0B0F7D2CFAA
:100AA000F60157FC859157FE81916F01B70190E0E7
:100AB0000E94680631103A94B1E0AB1AB108C3CF76
:100AC000843619F0893609F071C0F80157FE67C005
:100AD00061917191819191918F01E52DEF76DE2EDB
:100AE00097FF09C090958095709561957F4F8F4FC6
:100AF0009F4F6894D7F82AE030E0A4010E9498063E
:100B0000C82EC818AC2C5D2CD6FE0CC0E89450F84A
:100B1000CB1440F4D4FE05C0D2FC03C05D2D5E7E34
:100B2000552EAB2C54FE93C0FE01EC0DF11D8081BF
:100B3000803309F085C0652D697E562E752D78703D
:100B4000372E53FC93C050FE8DC0BC2CA41410F45F
:100B5000B40CBA1854FE90C0B70180E390E00E9434
:100B6000680652FE07C088E751FC88E590E0B701AF
:100B70000E946806CB1408F48BC0CA94D12C8FEF66
:100B8000C81AD80AC80CD91CD6018E916D01B701BC
:100B900090E00E9468068C149D04B1F757CF6191D4
:100BA0007191072E000C880B990B96CFD52CE894E9
:100BB000D4F82AE0853729F1F52DF97FDF2E80372B
:100BC000A1F058F48835A1F08F36D1F0F701868175
:100BD00097812F96E2E10C9412078837B9F7D4FE7B
:100BE00002C06894D2F820E10CC06894D4F8F7CF22
:100BF00054FE03C02F2F2660D22E20E132E002C027
:100C000028E030E0F801D7FE15C041915191619183
:100C100071914C875D876E877F878F01A4016C85FA
:100C20007D858E859F850E949806C82EC818E894F9
:100C3000D7F868CF81919191AC0170E060E0E9CF85
:100C400052FC02C0A3947ACFA394A39477CF852DAE
:100C5000867809F473CFF6CFB70180E290E00E9466
:100C60006806A394A414C0F3312C74CF342C3A1822
:100C7000A41408F46FCFF8CF852D867809F47ACFC5
:100C80008BE251FE80E257FC8DE2B70190E070CF1D
:100C9000B70180E390E00E946806BA946BCF8FEFB3
:100CA0009FEF97CFFC010590615070400110D8F77D
:100CB000809590958E0F9F1F0895FC0161507040A4
:100CC00001900110D8F7809590958E0F9F1F089581
:100CD0000F931F93CF93DF93182F092FEB018B8175
:100CE00081FD09C01FEF0FEF812F902FDF91CF9172
:100CF0001F910F91089582FF14C02E813F818C8136
:100D00009D81281739073CF4E881F981CF010196CC
:100D10009983888310838E819F8101969F838E8320
:100D2000E3CFE885F985812F0995892BA1F3DACFE7
:100D3000FA01AA27283051F1203181F1E8946F930C
:100D40006E7F6E5F7F4F8F4F9F4FAF4FB1E03ED0B2
:100D5000B4E03CD0670F781F891F9A1FA11D680F50
:100D6000791F8A1F911DA11D6A0F711D811D911D83
:100D7000A11D20D009F468943F912AE0269F1124F8
:100D80003019305D3193DEF6CF010895462F47705C
:100D9000405D4193B3E00FD0C9F7F6CF462F4F70B7
:100DA000405D4A3318F0495D31FD4052419302D015
:100DB000A9F7EACFB4E0A6959795879577956795BB
:100DC000BA95C9F700976105710508959B01AC01BB
:100DD0000A2E06945795479537952795BA95C9F7E2
:100DE000620F731F841F951FA01D08952F923F92BD
:100DF0004F925F926F927F928F929F92AF92BF922B
:100E0000CF92DF92EF92FF920F931F93CF93DF93D6
:100E1000CDB7DEB7CA1BDB0B0FB6F894DEBF0FBE33
:100E2000CDBF09942A88398848885F846E847D8480
:100E30008C849B84AA84B984C884DF80EE80FD8082
:100E40000C811B81AA81B981CE0FD11D0FB6F894F8
:0E0E5000DEBF0FBECDBFED010895F894FFCFB9
:100E5E0003000102030405060708090A000B00251A
:020E6E0064001E
:00000001FF
