:100000000C942A000C943F000C943F000C943F0089
:100010000C943F000C943F000C943F000C943F0064
:100020000C943F000C943F000C943F000C943F0054
:100030000C943F000C943F000C943F000C943F0044
:100040000C943F000C943F000C943F000C943F0034
:100050000C943F0011241FBECFE5D4E0DEBFCDBF1E
:1000600010E0A0E6B0E0E0EDF0E002C005900D92F7
:10007000AA36B107D9F70E945B000C9466000C9475
:1000800000009C010A9730F4205A3F4FF90180810B
:1000900090E0089590E080E008958EEE95E89DBD93
:1000A0008CBD1FBC84E08EBD08B602FEFDCF1EBC19
:1000B00084E088BF08958FEF81BB8BE582BB0E94EF
:1000C0004D008FE482BB90E080E00895F894FFCF6C
:0A00D0003F065B4F666D7D077FEF72
:00000001FF
