:100000000C942A000C9434000C9434000C943400AA
:100010000C9434000C9434000C9434000C94340090
:100020000C9434000C9434000C9434000C94340080
:100030000C9434000C9434000C9434000C94340070
:100040000C9434000C9434000C9434000C94340060
:100050000C94340011241FBECFE5D4E0DEBFCDBF29
:100060000E9436000C944E000C9400001ABA8FEFD8
:1000700087BB18BA2FE936E891E021503040904014
:10008000E1F700C0000088BB2FE936E891E021507D
:1000900030409040E1F700C00000EBCFF894FFCF74
:00000001FF
