:100000000C942A000C943F000C943F000C943F0089
:100010000C943F000C943F000C943F000C943F0064
:100020000C943F000C943F000C943F000C943F0054
:100030000C943F000C943F000C943F000C943F0044
:100040000C943F000C943F000C943F000C943F0034
:100050000C943F0011241FBECFE5D4E0DEBFCDBF1E
:1000600010E0A0E6B0E0EEEEF9E002C005900D92DF
:10007000AA36B107D9F70E9496000C94F5040C94A7
:10008000000082BBAD98AE98AF9A82E08A95F1F7F6
:1000900000C0AF988FE697E10197F1F700C000002C
:1000A00008958FEF84BB81BB8FE39CE90197F1F743
:1000B00000C0000088E30E9441008CE00E944100E3
:1000C00086E00E94410081E00E94410080E80C949B
:1000D000410082BBAD9AAE98AF9A82E08A95F1F763
:1000E00000C0AF988FEC97E00197F1F700C00000D7
:1000F0000895CF93DF93EC018991811103C0DF91C3
:10010000CF9108950E946900F7CF81E00E944100DD
:1001100080E80C94410097B1987F8770982B97B92D
:10012000369A3699FECF84B195B10895CDB7DEB732
:1001300060970FB6F894DEBF0FBECDBF80E487B9DD
:1001400087E886B90E94510080E6E82E80E0F82E0C
:100150008E010F5F1F4F80E00E948B009C0150E0DA
:1001600040E02D873E874F87588BCA01B9010E9416
:10017000960127ED33EA40E050E46D877E878F8754
:10018000988B6D857E858F8598890E94EE006D879E
:100190007E878F87988B6D857E858F8598890E9455
:1001A00060017F936F93FF92EF921F930F930E94D2
:1001B00024020E948500C8010E9479003FEF42E5B9
:1001C00057E0315040405040E1F700C000000F9030
:1001D0000F900F900F900F900F90BDCF0E940201D3
:1001E0000C94EA010E94E30158F00E94DC0140F007
:1001F00029F45F3F29F00C94D30151110C941E0295
:100200000C94D9010E94FB0168F39923B1F35523A3
:1002100091F3951B550BBB27AA2762177307840719
:1002200038F09F5F5F4F220F331F441FAA1FA9F3AF
:1002300035D00E2E3AF0E0E832D091505040E6959D
:10024000001CCAF72BD0FE2F29D0660F771F881FFE
:10025000BB1F261737074807AB07B0E809F0BB0BF1
:10026000802DBF01FF2793585F4F3AF09E3F510505
:1002700078F00C94D3010C941E025F3FE4F3983E97
:10028000D4F3869577956795B795F7959F5FC9F7EE
:10029000880F911D9695879597F90895E1E0660F6F
:1002A000771F881FBB1F621773078407BA0720F0E8
:1002B000621B730B840BBA0BEE1F88F7E095089551
:1002C0000E9467016894B1110C941E0208950E9467
:1002D000030288F09F5798F0B92F9927B751B0F0D3
:1002E000E1F0660F771F881F991F1AF0BA95C9F7BA
:1002F00014C0B13091F00E941D02B1E008950C9439
:100300001D02672F782F8827B85F39F0B93FCCF3EB
:10031000869577956795B395D9F73EF49095809536
:10032000709561957F4F8F4F9F4F0895E89409C056
:1003300097FB3EF490958095709561957F4F8F4F18
:100340009F4F9923A9F0F92F96E9BB279395F6952E
:10035000879577956795B795F111F8CFFAF4BB0FAC
:1003600011F460FF1BC06F5F7F4F8F4F9F4F16C010
:10037000882311F096E911C0772321F09EE8872F9A
:10038000762F05C0662371F096E8862F70E060E056
:100390002AF09A95660F771F881FDAF7880F9695CF
:1003A000879597F9089597F99F6780E870E060E076
:1003B00008959FEF80EC089500240A9416161706FE
:1003C00018060906089500240A9412161306140646
:1003D00005060895092E0394000C11F4882352F0A9
:1003E000BB0F40F4BF2B11F460FF04C06F5F7F4F61
:1003F0008F4F9F4F089557FD9058440F551F59F048
:100400005F3F71F04795880F97FB991F61F09F3F01
:1004100079F087950895121613061406551FF2CF2A
:100420004695F1DF08C0161617061806991FF1CF7A
:1004300086957105610508940895E894BB276627A1
:100440007727CB0197F90895AEE0B0E0EAE2F2E059
:100450000C94CC040D891E8986E08C831A83098351
:100460008FEF9FE79E838D83AE01475E5F4F6F895D
:10047000788DCE0101960E9447022F813885020FA8
:10048000131FF80110822E96E4E00C94E804AFE00C
:10049000B0E0EDE4F2E00C94BE047C013B018A0183
:1004A000DC0117961C921E92169713968C9181FF71
:1004B000BEC19AE0292EFE0131964F01D701139655
:1004C0009C91F30193FD859193FF81913F018823D6
:1004D00009F444C1853239F493FD859193FF8191EC
:1004E0003F01853229F4B70190E00E943004E6CF45
:1004F000B12C412C512CBFE1B51538F08B3209F1EC
:1005000088F4803201F1833221F157FC3AC020EDAA
:10051000280F2A3040F556FE1FC0B29C200D112432
:10052000B22E06C08D3291F0803379F7689450F87E
:10053000F30193FD859193FF81913F018111DBCF01
:1005400020C0689451F8689452F8F2CF689453F838
:10055000EFCF689454F8ECCF429C200D1124422E2A
:10056000689455F8E5CF8E3229F456FCF7C06894AC
:1005700056F8DECF8C3619F4689457F8D9CF883600
:10058000B9F2982F9F7D95549330C0F0833681F156
:100590008337A1F1833509F05BC0D801CD90DD90A0
:1005A0008D016B2D70E056FC02C06FEF7FEFC6012E
:1005B0000E941A045C01689457F80AC00C5F1F4F30
:1005C000EFE3E983AA24A394B12C6401E89457F8DB
:1005D00053FE29C0342CA114B10451F5332009F481
:1005E0006DCFB70180E290E00E9430043A94F6CFDC
:1005F000D8018C9189830E5F1F4FE4CFF801C19021
:10060000D1908F016B2D70E056FC02C06FEF7FEF31
:10061000C6010E9425045C01D9CFB70180E290E0B9
:100620000E9430044A944A141B0409F0B0F7D2CF58
:10063000F60157FC859157FE81916F01B70190E05B
:100640000E94300431103A94B1E0AB1AB108C3CF24
:10065000843619F0893609F071C0F80157FE67C079
:1006600061917191819191918F01E52DEF76DE2E4F
:1006700097FF09C090958095709561957F4F8F4F3A
:100680009F4F6894D7F82AE030E0A4010E946004EC
:10069000C82EC818AC2C5D2CD6FE0CC0E89450F8BF
:1006A000CB1440F4D4FE05C0D2FC03C05D2D5E7EA9
:1006B000552EAB2C54FE93C0FE01EC0DF11D808134
:1006C000803309F085C0652D697E562E752D7870B2
:1006D000372E53FC93C050FE8DC0BC2CA41410F4D4
:1006E000B40CBA1854FE90C0B70180E390E00E94A9
:1006F000300452FE07C088E751FC88E590E0B7015E
:100700000E943004CB1408F48BC0CA94D12C8FEF14
:10071000C81AD80AC80CD91CD6018E916D01B70130
:1007200090E00E9430048C149D04B1F757CF619182
:100730007191072E000C880B990B96CFD52CE8945D
:10074000D4F82AE0853729F1F52DF97FDF2E80379F
:10075000A1F058F48835A1F08F36D1F0F7018681E9
:1007600097812F96E2E10C94DA048837B9F7D4FE2A
:1007700002C06894D2F820E10CC06894D4F8F7CF96
:1007800054FE03C02F2F2660D22E20E132E002C09B
:1007900028E030E0F801D7FE15C0419151916191F8
:1007A00071914C875D876E877F878F01A4016C856F
:1007B0007D858E859F850E946004C82EC818E894A8
:1007C000D7F868CF81919191AC0170E060E0E9CFFA
:1007D00052FC02C0A3947ACFA394A39477CF852D23
:1007E000867809F473CFF6CFB70180E290E00E94DB
:1007F0003004A394A414C0F3312C74CF342C3A18D1
:10080000A41408F46FCFF8CF852D867809F47ACF39
:100810008BE251FE80E257FC8DE2B70190E070CF91
:10082000B70180E390E00E943004BA946BCF8FEF61
:100830009FEF97CFFC010590615070400110D8F7F1
:10084000809590958E0F9F1F0895FC016150704018
:1008500001900110D8F7809590958E0F9F1F0895F5
:100860000F931F93CF93DF93182F092FEB018B81E9
:1008700081FD09C01FEF0FEF812F902FDF91CF91E6
:100880001F910F91089582FF14C02E813F818C81AA
:100890009D81281739073CF4E881F981CF01019641
:1008A0009983888310838E819F8101969F838E8395
:1008B000E3CFE885F985812F0995892BA1F3DACF5C
:1008C000FA01AA27283051F1203181F1E8946F9381
:1008D0006E7F6E5F7F4F8F4F9F4FAF4FB1E03ED027
:1008E000B4E03CD0670F781F891F9A1FA11D680FC5
:1008F000791F8A1F911DA11D6A0F711D811D911DF8
:10090000A11D20D009F468943F912AE0269F11246C
:100910003019305D3193DEF6CF010895462F4770D0
:10092000405D4193B3E00FD0C9F7F6CF462F4F702B
:10093000405D4A3318F0495D31FD4052419302D089
:10094000A9F7EACFB4E0A69597958795779567952F
:10095000BA95C9F700976105710508959B01AC012F
:100960000A2E06945795479537952795BA95C9F756
:10097000620F731F841F951FA01D08952F923F9231
:100980004F925F926F927F928F929F92AF92BF929F
:10099000CF92DF92EF92FF920F931F93CF93DF934B
:1009A000CDB7DEB7CA1BDB0B0FB6F894DEBF0FBEA8
:1009B000CDBF09942A88398848885F846E847D84F5
:1009C0008C849B84AA84B984C884DF80EE80FD80F7
:1009D0000C811B81AA81B981CE0FD11D0FB6F8946D
:0E09E000DEBF0FBECDBFED010895F894FFCF2E
:0A09EE0074656D703A202564000066
:00000001FF
